{"abi":[{"type":"constructor","inputs":[{"name":"_factory","type":"address","internalType":"address"},{"name":"_WETH","type":"address","internalType":"address"}],"stateMutability":"nonpayable"},{"type":"receive","stateMutability":"payable"},{"type":"function","name":"WETH","inputs":[],"outputs":[{"name":"","type":"address","internalType":"address"}],"stateMutability":"view"},{"type":"function","name":"addLiquidity","inputs":[{"name":"tokenA","type":"address","internalType":"address"},{"name":"tokenB","type":"address","internalType":"address"},{"name":"amountADesired","type":"uint256","internalType":"uint256"},{"name":"amountBDesired","type":"uint256","internalType":"uint256"},{"name":"amountAMin","type":"uint256","internalType":"uint256"},{"name":"amountBMin","type":"uint256","internalType":"uint256"},{"name":"to","type":"address","internalType":"address"},{"name":"deadline","type":"uint256","internalType":"uint256"}],"outputs":[{"name":"amountA","type":"uint256","internalType":"uint256"},{"name":"amountB","type":"uint256","internalType":"uint256"},{"name":"liquidity","type":"uint256","internalType":"uint256"}],"stateMutability":"nonpayable"},{"type":"function","name":"addLiquidityETH","inputs":[{"name":"token","type":"address","internalType":"address"},{"name":"amountTokenDesired","type":"uint256","internalType":"uint256"},{"name":"amountTokenMin","type":"uint256","internalType":"uint256"},{"name":"amountETHMin","type":"uint256","internalType":"uint256"},{"name":"to","type":"address","internalType":"address"},{"name":"deadline","type":"uint256","internalType":"uint256"}],"outputs":[{"name":"amountToken","type":"uint256","internalType":"uint256"},{"name":"amountETH","type":"uint256","internalType":"uint256"},{"name":"liquidity","type":"uint256","internalType":"uint256"}],"stateMutability":"payable"},{"type":"function","name":"factory","inputs":[],"outputs":[{"name":"","type":"address","internalType":"address"}],"stateMutability":"view"},{"type":"function","name":"getAmountIn","inputs":[{"name":"amountOut","type":"uint256","internalType":"uint256"},{"name":"reserveIn","type":"uint256","internalType":"uint256"},{"name":"reserveOut","type":"uint256","internalType":"uint256"}],"outputs":[{"name":"amountIn","type":"uint256","internalType":"uint256"}],"stateMutability":"pure"},{"type":"function","name":"getAmountOut","inputs":[{"name":"amountIn","type":"uint256","internalType":"uint256"},{"name":"reserveIn","type":"uint256","internalType":"uint256"},{"name":"reserveOut","type":"uint256","internalType":"uint256"}],"outputs":[{"name":"amountOut","type":"uint256","internalType":"uint256"}],"stateMutability":"pure"},{"type":"function","name":"getAmountsIn","inputs":[{"name":"amountOut","type":"uint256","internalType":"uint256"},{"name":"path","type":"address[]","internalType":"address[]"}],"outputs":[{"name":"amounts","type":"uint256[]","internalType":"uint256[]"}],"stateMutability":"view"},{"type":"function","name":"getAmountsOut","inputs":[{"name":"amountIn","type":"uint256","internalType":"uint256"},{"name":"path","type":"address[]","internalType":"address[]"}],"outputs":[{"name":"amounts","type":"uint256[]","internalType":"uint256[]"}],"stateMutability":"view"},{"type":"function","name":"quote","inputs":[{"name":"amountA","type":"uint256","internalType":"uint256"},{"name":"reserveA","type":"uint256","internalType":"uint256"},{"name":"reserveB","type":"uint256","internalType":"uint256"}],"outputs":[{"name":"amountB","type":"uint256","internalType":"uint256"}],"stateMutability":"pure"},{"type":"function","name":"removeLiquidity","inputs":[{"name":"tokenA","type":"address","internalType":"address"},{"name":"tokenB","type":"address","internalType":"address"},{"name":"liquidity","type":"uint256","internalType":"uint256"},{"name":"amountAMin","type":"uint256","internalType":"uint256"},{"name":"amountBMin","type":"uint256","internalType":"uint256"},{"name":"to","type":"address","internalType":"address"},{"name":"deadline","type":"uint256","internalType":"uint256"}],"outputs":[{"name":"amountA","type":"uint256","internalType":"uint256"},{"name":"amountB","type":"uint256","internalType":"uint256"}],"stateMutability":"nonpayable"},{"type":"function","name":"removeLiquidityETH","inputs":[{"name":"token","type":"address","internalType":"address"},{"name":"liquidity","type":"uint256","internalType":"uint256"},{"name":"amountTokenMin","type":"uint256","internalType":"uint256"},{"name":"amountETHMin","type":"uint256","internalType":"uint256"},{"name":"to","type":"address","internalType":"address"},{"name":"deadline","type":"uint256","internalType":"uint256"}],"outputs":[{"name":"amountToken","type":"uint256","internalType":"uint256"},{"name":"amountETH","type":"uint256","internalType":"uint256"}],"stateMutability":"nonpayable"},{"type":"function","name":"removeLiquidityETHSupportingFeeOnTransferTokens","inputs":[{"name":"token","type":"address","internalType":"address"},{"name":"liquidity","type":"uint256","internalType":"uint256"},{"name":"amountTokenMin","type":"uint256","internalType":"uint256"},{"name":"amountETHMin","type":"uint256","internalType":"uint256"},{"name":"to","type":"address","internalType":"address"},{"name":"deadline","type":"uint256","internalType":"uint256"}],"outputs":[{"name":"amountETH","type":"uint256","internalType":"uint256"}],"stateMutability":"nonpayable"},{"type":"function","name":"removeLiquidityETHWithPermit","inputs":[{"name":"token","type":"address","internalType":"address"},{"name":"liquidity","type":"uint256","internalType":"uint256"},{"name":"amountTokenMin","type":"uint256","internalType":"uint256"},{"name":"amountETHMin","type":"uint256","internalType":"uint256"},{"name":"to","type":"address","internalType":"address"},{"name":"deadline","type":"uint256","internalType":"uint256"},{"name":"approveMax","type":"bool","internalType":"bool"},{"name":"v","type":"uint8","internalType":"uint8"},{"name":"r","type":"bytes32","internalType":"bytes32"},{"name":"s","type":"bytes32","internalType":"bytes32"}],"outputs":[{"name":"amountToken","type":"uint256","internalType":"uint256"},{"name":"amountETH","type":"uint256","internalType":"uint256"}],"stateMutability":"nonpayable"},{"type":"function","name":"removeLiquidityETHWithPermitSupportingFeeOnTransferTokens","inputs":[{"name":"token","type":"address","internalType":"address"},{"name":"liquidity","type":"uint256","internalType":"uint256"},{"name":"amountTokenMin","type":"uint256","internalType":"uint256"},{"name":"amountETHMin","type":"uint256","internalType":"uint256"},{"name":"to","type":"address","internalType":"address"},{"name":"deadline","type":"uint256","internalType":"uint256"},{"name":"approveMax","type":"bool","internalType":"bool"},{"name":"v","type":"uint8","internalType":"uint8"},{"name":"r","type":"bytes32","internalType":"bytes32"},{"name":"s","type":"bytes32","internalType":"bytes32"}],"outputs":[{"name":"amountETH","type":"uint256","internalType":"uint256"}],"stateMutability":"nonpayable"},{"type":"function","name":"removeLiquidityWithPermit","inputs":[{"name":"tokenA","type":"address","internalType":"address"},{"name":"tokenB","type":"address","internalType":"address"},{"name":"liquidity","type":"uint256","internalType":"uint256"},{"name":"amountAMin","type":"uint256","internalType":"uint256"},{"name":"amountBMin","type":"uint256","internalType":"uint256"},{"name":"to","type":"address","internalType":"address"},{"name":"deadline","type":"uint256","internalType":"uint256"},{"name":"approveMax","type":"bool","internalType":"bool"},{"name":"v","type":"uint8","internalType":"uint8"},{"name":"r","type":"bytes32","internalType":"bytes32"},{"name":"s","type":"bytes32","internalType":"bytes32"}],"outputs":[{"name":"amountA","type":"uint256","internalType":"uint256"},{"name":"amountB","type":"uint256","internalType":"uint256"}],"stateMutability":"nonpayable"},{"type":"function","name":"swapETHForExactTokens","inputs":[{"name":"amountOut","type":"uint256","internalType":"uint256"},{"name":"path","type":"address[]","internalType":"address[]"},{"name":"to","type":"address","internalType":"address"},{"name":"deadline","type":"uint256","internalType":"uint256"}],"outputs":[{"name":"amounts","type":"uint256[]","internalType":"uint256[]"}],"stateMutability":"payable"},{"type":"function","name":"swapExactETHForTokens","inputs":[{"name":"amountOutMin","type":"uint256","internalType":"uint256"},{"name":"path","type":"address[]","internalType":"address[]"},{"name":"to","type":"address","internalType":"address"},{"name":"deadline","type":"uint256","internalType":"uint256"}],"outputs":[{"name":"amounts","type":"uint256[]","internalType":"uint256[]"}],"stateMutability":"payable"},{"type":"function","name":"swapExactETHForTokensSupportingFeeOnTransferTokens","inputs":[{"name":"amountOutMin","type":"uint256","internalType":"uint256"},{"name":"path","type":"address[]","internalType":"address[]"},{"name":"to","type":"address","internalType":"address"},{"name":"deadline","type":"uint256","internalType":"uint256"}],"outputs":[],"stateMutability":"payable"},{"type":"function","name":"swapExactTokensForETH","inputs":[{"name":"amountIn","type":"uint256","internalType":"uint256"},{"name":"amountOutMin","type":"uint256","internalType":"uint256"},{"name":"path","type":"address[]","internalType":"address[]"},{"name":"to","type":"address","internalType":"address"},{"name":"deadline","type":"uint256","internalType":"uint256"}],"outputs":[{"name":"amounts","type":"uint256[]","internalType":"uint256[]"}],"stateMutability":"nonpayable"},{"type":"function","name":"swapExactTokensForETHSupportingFeeOnTransferTokens","inputs":[{"name":"amountIn","type":"uint256","internalType":"uint256"},{"name":"amountOutMin","type":"uint256","internalType":"uint256"},{"name":"path","type":"address[]","internalType":"address[]"},{"name":"to","type":"address","internalType":"address"},{"name":"deadline","type":"uint256","internalType":"uint256"}],"outputs":[],"stateMutability":"nonpayable"},{"type":"function","name":"swapExactTokensForTokens","inputs":[{"name":"amountIn","type":"uint256","internalType":"uint256"},{"name":"amountOutMin","type":"uint256","internalType":"uint256"},{"name":"path","type":"address[]","internalType":"address[]"},{"name":"to","type":"address","internalType":"address"},{"name":"deadline","type":"uint256","internalType":"uint256"}],"outputs":[{"name":"amounts","type":"uint256[]","internalType":"uint256[]"}],"stateMutability":"nonpayable"},{"type":"function","name":"swapExactTokensForTokensSupportingFeeOnTransferTokens","inputs":[{"name":"amountIn","type":"uint256","internalType":"uint256"},{"name":"amountOutMin","type":"uint256","internalType":"uint256"},{"name":"path","type":"address[]","internalType":"address[]"},{"name":"to","type":"address","internalType":"address"},{"name":"deadline","type":"uint256","internalType":"uint256"}],"outputs":[],"stateMutability":"nonpayable"},{"type":"function","name":"swapTokensForExactETH","inputs":[{"name":"amountOut","type":"uint256","internalType":"uint256"},{"name":"amountInMax","type":"uint256","internalType":"uint256"},{"name":"path","type":"address[]","internalType":"address[]"},{"name":"to","type":"address","internalType":"address"},{"name":"deadline","type":"uint256","internalType":"uint256"}],"outputs":[{"name":"amounts","type":"uint256[]","internalType":"uint256[]"}],"stateMutability":"nonpayable"},{"type":"function","name":"swapTokensForExactTokens","inputs":[{"name":"amountOut","type":"uint256","internalType":"uint256"},{"name":"amountInMax","type":"uint256","internalType":"uint256"},{"name":"path","type":"address[]","internalType":"address[]"},{"name":"to","type":"address","internalType":"address"},{"name":"deadline","type":"uint256","internalType":"uint256"}],"outputs":[{"name":"amounts","type":"uint256[]","internalType":"uint256[]"}],"stateMutability":"nonpayable"}],"bytecode":{"object":"0x60c060405234801561001057600080fd5b506040516200472d3803806200472d8339818101604052604081101561003557600080fd5b5080516020909101516001600160601b0319606092831b8116608052911b1660a05260805160601c60a05160601c6145a8620001856000398061012f5280610cb45280610cef5280610de65280611004528061138e52806114f452806118bb52806119b55280611a6b5280611b395280611c7f5280611d075280611f4c5280611fc75280612076528061214252806121d7528061224b528061274952806129bc5280612a125280612a465280612aba5280612c5a5280612d9d5280612e25525080610e745280610f4b52806110ca5280611103528061123e528061141c52806114d252806116425280611bcc5280611d395280611e9c528061227d52806124d652806126ce52806126f75280612727528061289452806129f05280612ced5280612e5752806136e6528061372952806139f95280613b785280613fa8528061405652806140d652506145a86000f3fe60806040526004361061011f5760003560e01c806302751cec1461015d578063054d50d4146101c957806318cbafe5146102115780631f00ca74146102f75780632195995c146103ac57806338ed17391461042a5780634a25d94a146104c05780635b0d5984146105565780635c11d795146105c9578063791ac9471461065f5780637ff36ab5146106f557806385f8c259146107795780638803dbee146107af578063ad5c464814610845578063ad615dec14610876578063af2979eb146108ac578063b6f9de95146108ff578063baa2abde14610983578063c45a0155146109e0578063d06ca61f146109f5578063ded9382a14610aaa578063e8e3370014610b1d578063f305d71914610b9d578063fb3bdb4114610be357610158565b3661015857336001600160a01b037f0000000000000000000000000000000000000000000000000000000000000000161461015657fe5b005b600080fd5b34801561016957600080fd5b506101b0600480360360c081101561018057600080fd5b506001600160a01b0381358116916020810135916040820135916060810135916080820135169060a00135610c67565b6040805192835260208301919091528051918290030190f35b3480156101d557600080fd5b506101ff600480360360608110156101ec57600080fd5b5080359060208101359060400135610d81565b60408051918252519081900360200190f35b34801561021d57600080fd5b506102a7600480360360a081101561023457600080fd5b813591602081013591810190606081016040820135600160201b81111561025a57600080fd5b82018360208201111561026c57600080fd5b803590602001918460208302840111600160201b8311171561028d57600080fd5b91935091506001600160a01b038135169060200135610d96565b60408051602080825283518183015283519192839290830191858101910280838360005b838110156102e35781810151838201526020016102cb565b505050509050019250505060405180910390f35b34801561030357600080fd5b506102a76004803603604081101561031a57600080fd5b81359190810190604081016020820135600160201b81111561033b57600080fd5b82018360208201111561034d57600080fd5b803590602001918460208302840111600160201b8311171561036e57600080fd5b9190808060200260200160405190810160405280939291908181526020018383602002808284376000920191909152509295506110c3945050505050565b3480156103b857600080fd5b506101b060048036036101608110156103d057600080fd5b506001600160a01b038135811691602081013582169160408201359160608101359160808201359160a08101359091169060c08101359060e081013515159060ff61010082013516906101208101359061014001356110f9565b34801561043657600080fd5b506102a7600480360360a081101561044d57600080fd5b813591602081013591810190606081016040820135600160201b81111561047357600080fd5b82018360208201111561048557600080fd5b803590602001918460208302840111600160201b831117156104a657600080fd5b91935091506001600160a01b0381351690602001356111f3565b3480156104cc57600080fd5b506102a7600480360360a08110156104e357600080fd5b813591602081013591810190606081016040820135600160201b81111561050957600080fd5b82018360208201111561051b57600080fd5b803590602001918460208302840111600160201b8311171561053c57600080fd5b91935091506001600160a01b03813516906020013561133e565b34801561056257600080fd5b506101ff600480360361014081101561057a57600080fd5b506001600160a01b0381358116916020810135916040820135916060810135916080820135169060a08101359060c081013515159060ff60e082013516906101008101359061012001356114ca565b3480156105d557600080fd5b50610156600480360360a08110156105ec57600080fd5b813591602081013591810190606081016040820135600160201b81111561061257600080fd5b82018360208201111561062457600080fd5b803590602001918460208302840111600160201b8311171561064557600080fd5b91935091506001600160a01b0381351690602001356115d8565b34801561066b57600080fd5b50610156600480360360a081101561068257600080fd5b813591602081013591810190606081016040820135600160201b8111156106a857600080fd5b8201836020820111156106ba57600080fd5b803590602001918460208302840111600160201b831117156106db57600080fd5b91935091506001600160a01b03813516906020013561186d565b6102a76004803603608081101561070b57600080fd5b81359190810190604081016020820135600160201b81111561072c57600080fd5b82018360208201111561073e57600080fd5b803590602001918460208302840111600160201b8311171561075f57600080fd5b91935091506001600160a01b038135169060200135611af1565b34801561078557600080fd5b506101ff6004803603606081101561079c57600080fd5b5080359060208101359060400135611e44565b3480156107bb57600080fd5b506102a7600480360360a08110156107d257600080fd5b813591602081013591810190606081016040820135600160201b8111156107f857600080fd5b82018360208201111561080a57600080fd5b803590602001918460208302840111600160201b8311171561082b57600080fd5b91935091506001600160a01b038135169060200135611e51565b34801561085157600080fd5b5061085a611f4a565b604080516001600160a01b039092168252519081900360200190f35b34801561088257600080fd5b506101ff6004803603606081101561089957600080fd5b5080359060208101359060400135611f6e565b3480156108b857600080fd5b506101ff600480360360c08110156108cf57600080fd5b506001600160a01b0381358116916020810135916040820135916060810135916080820135169060a00135611f7b565b6101566004803603608081101561091557600080fd5b81359190810190604081016020820135600160201b81111561093657600080fd5b82018360208201111561094857600080fd5b803590602001918460208302840111600160201b8311171561096957600080fd5b91935091506001600160a01b0381351690602001356120fc565b34801561098f57600080fd5b506101b0600480360360e08110156109a657600080fd5b506001600160a01b038135811691602081013582169160408201359160608101359160808201359160a08101359091169060c00135612488565b3480156109ec57600080fd5b5061085a6126cc565b348015610a0157600080fd5b506102a760048036036040811015610a1857600080fd5b81359190810190604081016020820135600160201b811115610a3957600080fd5b820183602082011115610a4b57600080fd5b803590602001918460208302840111600160201b83111715610a6c57600080fd5b9190808060200260200160405190810160405280939291908181526020018383602002808284376000920191909152509295506126f0945050505050565b348015610ab657600080fd5b506101b06004803603610140811015610ace57600080fd5b506001600160a01b0381358116916020810135916040820135916060810135916080820135169060a08101359060c081013515159060ff60e0820135169061010081013590610120013561271d565b348015610b2957600080fd5b50610b7f6004803603610100811015610b4157600080fd5b506001600160a01b038135811691602081013582169160408201359160608101359160808201359160a08101359160c0820135169060e00135612831565b60408051938452602084019290925282820152519081900360600190f35b610b7f600480360360c0811015610bb357600080fd5b506001600160a01b0381358116916020810135916040820135916060810135916080820135169060a0013561296d565b6102a760048036036080811015610bf957600080fd5b81359190810190604081016020820135600160201b811115610c1a57600080fd5b820183602082011115610c2c57600080fd5b803590602001918460208302840111600160201b83111715610c4d57600080fd5b91935091506001600160a01b038135169060200135612c12565b6000808242811015610cae576040805162461bcd60e51b81526020600482015260186024820152600080516020614533833981519152604482015290519081900360640190fd5b610cdd897f00000000000000000000000000000000000000000000000000000000000000008a8a8a308a612488565b9093509150610ced898685612f94565b7f00000000000000000000000000000000000000000000000000000000000000006001600160a01b0316632e1a7d4d836040518263ffffffff1660e01b815260040180828152602001915050600060405180830381600087803b158015610d5357600080fd5b505af1158015610d67573d6000803e3d6000fd5b50505050610d7585836130fe565b50965096945050505050565b6000610d8e8484846131f6565b949350505050565b60608142811015610ddc576040805162461bcd60e51b81526020600482015260186024820152600080516020614533833981519152604482015290519081900360640190fd5b6001600160a01b037f00000000000000000000000000000000000000000000000000000000000000001686866000198101818110610e1657fe5b905060200201356001600160a01b03166001600160a01b031614610e6f576040805162461bcd60e51b815260206004820152601d6024820152600080516020614450833981519152604482015290519081900360640190fd5b610ecd7f0000000000000000000000000000000000000000000000000000000000000000898888808060200260200160405190810160405280939291908181526020018383602002808284376000920191909152506132e692505050565b91508682600184510381518110610ee057fe5b60200260200101511015610f255760405162461bcd60e51b815260040180806020018281038252602b8152602001806144b9602b913960400191505060405180910390fd5b610fc386866000818110610f3557fe5b905060200201356001600160a01b031633610fa97f00000000000000000000000000000000000000000000000000000000000000008a8a6000818110610f7757fe5b905060200201356001600160a01b03168b8b6001818110610f9457fe5b905060200201356001600160a01b031661341f565b85600081518110610fb657fe5b60200260200101516134da565b61100282878780806020026020016040519081016040528093929190818152602001838360200280828437600092019190915250309250613637915050565b7f00000000000000000000000000000000000000000000000000000000000000006001600160a01b0316632e1a7d4d8360018551038151811061104157fe5b60200260200101516040518263ffffffff1660e01b815260040180828152602001915050600060405180830381600087803b15801561107f57600080fd5b505af1158015611093573d6000803e3d6000fd5b505050506110b884836001855103815181106110ab57fe5b60200260200101516130fe565b509695505050505050565b60606110f07f0000000000000000000000000000000000000000000000000000000000000000848461387d565b90505b92915050565b60008060006111297f00000000000000000000000000000000000000000000000000000000000000008f8f61341f565b9050600087611138578c61113c565b6000195b6040805163d505accf60e01b815233600482015230602482015260448101839052606481018c905260ff8a16608482015260a4810189905260c4810188905290519192506001600160a01b0384169163d505accf9160e48082019260009290919082900301818387803b1580156111b257600080fd5b505af11580156111c6573d6000803e3d6000fd5b505050506111d98f8f8f8f8f8f8f612488565b809450819550505050509b509b9950505050505050505050565b60608142811015611239576040805162461bcd60e51b81526020600482015260186024820152600080516020614533833981519152604482015290519081900360640190fd5b6112977f0000000000000000000000000000000000000000000000000000000000000000898888808060200260200160405190810160405280939291908181526020018383602002808284376000920191909152506132e692505050565b915086826001845103815181106112aa57fe5b602002602001015110156112ef5760405162461bcd60e51b815260040180806020018281038252602b8152602001806144b9602b913960400191505060405180910390fd5b6112ff86866000818110610f3557fe5b6110b882878780806020026020016040519081016040528093929190818152602001838360200280828437600092019190915250899250613637915050565b60608142811015611384576040805162461bcd60e51b81526020600482015260186024820152600080516020614533833981519152604482015290519081900360640190fd5b6001600160a01b037f000000000000000000000000000000000000000000000000000000000000000016868660001981018181106113be57fe5b905060200201356001600160a01b03166001600160a01b031614611417576040805162461bcd60e51b815260206004820152601d6024820152600080516020614450833981519152604482015290519081900360640190fd5b6114757f00000000000000000000000000000000000000000000000000000000000000008988888080602002602001604051908101604052809392919081815260200183836020028082843760009201919091525061387d92505050565b9150868260008151811061148557fe5b60200260200101511115610f255760405162461bcd60e51b81526004018080602001828103825260278152602001806144296027913960400191505060405180910390fd5b6000806115187f00000000000000000000000000000000000000000000000000000000000000008d7f000000000000000000000000000000000000000000000000000000000000000061341f565b9050600086611527578b61152b565b6000195b6040805163d505accf60e01b815233600482015230602482015260448101839052606481018b905260ff8916608482015260a4810188905260c4810187905290519192506001600160a01b0384169163d505accf9160e48082019260009290919082900301818387803b1580156115a157600080fd5b505af11580156115b5573d6000803e3d6000fd5b505050506115c78d8d8d8d8d8d611f7b565b9d9c50505050505050505050505050565b804281101561161c576040805162461bcd60e51b81526020600482015260186024820152600080516020614533833981519152604482015290519081900360640190fd5b6116918585600081811061162c57fe5b905060200201356001600160a01b03163361168b7f00000000000000000000000000000000000000000000000000000000000000008989600081811061166e57fe5b905060200201356001600160a01b03168a8a6001818110610f9457fe5b8a6134da565b6000858560001981018181106116a357fe5b905060200201356001600160a01b03166001600160a01b03166370a08231856040518263ffffffff1660e01b815260040180826001600160a01b03166001600160a01b0316815260200191505060206040518083038186803b15801561170857600080fd5b505afa15801561171c573d6000803e3d6000fd5b505050506040513d602081101561173257600080fd5b505160408051602088810282810182019093528882529293506117749290918991899182918501908490808284376000920191909152508892506139a2915050565b86611826828888600019810181811061178957fe5b905060200201356001600160a01b03166001600160a01b03166370a08231886040518263ffffffff1660e01b815260040180826001600160a01b03166001600160a01b0316815260200191505060206040518083038186803b1580156117ee57600080fd5b505afa158015611802573d6000803e3d6000fd5b505050506040513d602081101561181857600080fd5b50519063ffffffff613cad16565b10156118635760405162461bcd60e51b815260040180806020018281038252602b8152602001806144b9602b913960400191505060405180910390fd5b5050505050505050565b80428110156118b1576040805162461bcd60e51b81526020600482015260186024820152600080516020614533833981519152604482015290519081900360640190fd5b6001600160a01b037f000000000000000000000000000000000000000000000000000000000000000016858560001981018181106118eb57fe5b905060200201356001600160a01b03166001600160a01b031614611944576040805162461bcd60e51b815260206004820152601d6024820152600080516020614450833981519152604482015290519081900360640190fd5b6119548585600081811061162c57fe5b6119928585808060200260200160405190810160405280939291908181526020018383602002808284376000920191909152503092506139a2915050565b604080516370a0823160e01b815230600482015290516000916001600160a01b037f000000000000000000000000000000000000000000000000000000000000000016916370a0823191602480820192602092909190829003018186803b1580156119fc57600080fd5b505afa158015611a10573d6000803e3d6000fd5b505050506040513d6020811015611a2657600080fd5b5051905086811015611a695760405162461bcd60e51b815260040180806020018281038252602b8152602001806144b9602b913960400191505060405180910390fd5b7f00000000000000000000000000000000000000000000000000000000000000006001600160a01b0316632e1a7d4d826040518263ffffffff1660e01b815260040180828152602001915050600060405180830381600087803b158015611acf57600080fd5b505af1158015611ae3573d6000803e3d6000fd5b5050505061186384826130fe565b60608142811015611b37576040805162461bcd60e51b81526020600482015260186024820152600080516020614533833981519152604482015290519081900360640190fd5b7f00000000000000000000000000000000000000000000000000000000000000006001600160a01b031686866000818110611b6e57fe5b905060200201356001600160a01b03166001600160a01b031614611bc7576040805162461bcd60e51b815260206004820152601d6024820152600080516020614450833981519152604482015290519081900360640190fd5b611c257f0000000000000000000000000000000000000000000000000000000000000000348888808060200260200160405190810160405280939291908181526020018383602002808284376000920191909152506132e692505050565b91508682600184510381518110611c3857fe5b60200260200101511015611c7d5760405162461bcd60e51b815260040180806020018281038252602b8152602001806144b9602b913960400191505060405180910390fd5b7f00000000000000000000000000000000000000000000000000000000000000006001600160a01b031663d0e30db083600081518110611cb957fe5b60200260200101516040518263ffffffff1660e01b81526004016000604051808303818588803b158015611cec57600080fd5b505af1158015611d00573d6000803e3d6000fd5b50505050507f00000000000000000000000000000000000000000000000000000000000000006001600160a01b031663a9059cbb611d657f00000000000000000000000000000000000000000000000000000000000000008989600081811061166e57fe5b84600081518110611d7257fe5b60200260200101516040518363ffffffff1660e01b815260040180836001600160a01b03166001600160a01b0316815260200182815260200192505050602060405180830381600087803b158015611dc957600080fd5b505af1158015611ddd573d6000803e3d6000fd5b505050506040513d6020811015611df357600080fd5b5051611dfb57fe5b611e3a82878780806020026020016040519081016040528093929190818152602001838360200280828437600092019190915250899250613637915050565b5095945050505050565b6000610d8e848484613cfd565b60608142811015611e97576040805162461bcd60e51b81526020600482015260186024820152600080516020614533833981519152604482015290519081900360640190fd5b611ef57f00000000000000000000000000000000000000000000000000000000000000008988888080602002602001604051908101604052809392919081815260200183836020028082843760009201919091525061387d92505050565b91508682600081518110611f0557fe5b602002602001015111156112ef5760405162461bcd60e51b81526004018080602001828103825260278152602001806144296027913960400191505060405180910390fd5b7f000000000000000000000000000000000000000000000000000000000000000081565b6000610d8e848484613ded565b60008142811015611fc1576040805162461bcd60e51b81526020600482015260186024820152600080516020614533833981519152604482015290519081900360640190fd5b611ff0887f00000000000000000000000000000000000000000000000000000000000000008989893089612488565b604080516370a0823160e01b8152306004820152905191945061207492508a9187916001600160a01b038416916370a0823191602480820192602092909190829003018186803b15801561204357600080fd5b505afa158015612057573d6000803e3d6000fd5b505050506040513d602081101561206d57600080fd5b5051612f94565b7f00000000000000000000000000000000000000000000000000000000000000006001600160a01b0316632e1a7d4d836040518263ffffffff1660e01b815260040180828152602001915050600060405180830381600087803b1580156120da57600080fd5b505af11580156120ee573d6000803e3d6000fd5b505050506110b884836130fe565b8042811015612140576040805162461bcd60e51b81526020600482015260186024820152600080516020614533833981519152604482015290519081900360640190fd5b7f00000000000000000000000000000000000000000000000000000000000000006001600160a01b03168585600081811061217757fe5b905060200201356001600160a01b03166001600160a01b0316146121d0576040805162461bcd60e51b815260206004820152601d6024820152600080516020614450833981519152604482015290519081900360640190fd5b60003490507f00000000000000000000000000000000000000000000000000000000000000006001600160a01b031663d0e30db0826040518263ffffffff1660e01b81526004016000604051808303818588803b15801561223057600080fd5b505af1158015612244573d6000803e3d6000fd5b50505050507f00000000000000000000000000000000000000000000000000000000000000006001600160a01b031663a9059cbb6122a97f00000000000000000000000000000000000000000000000000000000000000008989600081811061166e57fe5b836040518363ffffffff1660e01b815260040180836001600160a01b03166001600160a01b0316815260200182815260200192505050602060405180830381600087803b1580156122f957600080fd5b505af115801561230d573d6000803e3d6000fd5b505050506040513d602081101561232357600080fd5b505161232b57fe5b60008686600019810181811061233d57fe5b905060200201356001600160a01b03166001600160a01b03166370a08231866040518263ffffffff1660e01b815260040180826001600160a01b03166001600160a01b0316815260200191505060206040518083038186803b1580156123a257600080fd5b505afa1580156123b6573d6000803e3d6000fd5b505050506040513d60208110156123cc57600080fd5b5051604080516020898102828101820190935289825292935061240e9290918a918a9182918501908490808284376000920191909152508992506139a2915050565b87611826828989600019810181811061242357fe5b905060200201356001600160a01b03166001600160a01b03166370a08231896040518263ffffffff1660e01b815260040180826001600160a01b03166001600160a01b0316815260200191505060206040518083038186803b1580156117ee57600080fd5b60008082428110156124cf576040805162461bcd60e51b81526020600482015260186024820152600080516020614533833981519152604482015290519081900360640190fd5b60006124fc7f00000000000000000000000000000000000000000000000000000000000000008c8c61341f565b604080516323b872dd60e01b81523360048201526001600160a01b03831660248201819052604482018d9052915192935090916323b872dd916064808201926020929091908290030181600087803b15801561255757600080fd5b505af115801561256b573d6000803e3d6000fd5b505050506040513d602081101561258157600080fd5b50506040805163226bf2d160e21b81526001600160a01b03888116600483015282516000938493928616926389afcb44926024808301939282900301818787803b1580156125ce57600080fd5b505af11580156125e2573d6000803e3d6000fd5b505050506040513d60408110156125f857600080fd5b508051602090910151909250905060006126128e8e613e99565b509050806001600160a01b03168e6001600160a01b031614612635578183612638565b82825b90975095508a87101561267c5760405162461bcd60e51b81526004018080602001828103825260268152602001806144706026913960400191505060405180910390fd5b898610156126bb5760405162461bcd60e51b81526004018080602001828103825260268152602001806143b66026913960400191505060405180910390fd5b505050505097509795505050505050565b7f000000000000000000000000000000000000000000000000000000000000000081565b60606110f07f000000000000000000000000000000000000000000000000000000000000000084846132e6565b600080600061276d7f00000000000000000000000000000000000000000000000000000000000000008e7f000000000000000000000000000000000000000000000000000000000000000061341f565b905060008761277c578c612780565b6000195b6040805163d505accf60e01b815233600482015230602482015260448101839052606481018c905260ff8a16608482015260a4810189905260c4810188905290519192506001600160a01b0384169163d505accf9160e48082019260009290919082900301818387803b1580156127f657600080fd5b505af115801561280a573d6000803e3d6000fd5b5050505061281c8e8e8e8e8e8e610c67565b909f909e509c50505050505050505050505050565b6000806000834281101561287a576040805162461bcd60e51b81526020600482015260186024820152600080516020614533833981519152604482015290519081900360640190fd5b6128888c8c8c8c8c8c613f77565b909450925060006128ba7f00000000000000000000000000000000000000000000000000000000000000008e8e61341f565b90506128c88d3383886134da565b6128d48c3383876134da565b806001600160a01b0316636a627842886040518263ffffffff1660e01b815260040180826001600160a01b03166001600160a01b03168152602001915050602060405180830381600087803b15801561292c57600080fd5b505af1158015612940573d6000803e3d6000fd5b505050506040513d602081101561295657600080fd5b5051949d939c50939a509198505050505050505050565b600080600083428110156129b6576040805162461bcd60e51b81526020600482015260186024820152600080516020614533833981519152604482015290519081900360640190fd5b6129e48a7f00000000000000000000000000000000000000000000000000000000000000008b348c8c613f77565b90945092506000612a367f00000000000000000000000000000000000000000000000000000000000000008c7f000000000000000000000000000000000000000000000000000000000000000061341f565b9050612a448b3383886134da565b7f00000000000000000000000000000000000000000000000000000000000000006001600160a01b031663d0e30db0856040518263ffffffff1660e01b81526004016000604051808303818588803b158015612a9f57600080fd5b505af1158015612ab3573d6000803e3d6000fd5b50505050507f00000000000000000000000000000000000000000000000000000000000000006001600160a01b031663a9059cbb82866040518363ffffffff1660e01b815260040180836001600160a01b03166001600160a01b0316815260200182815260200192505050602060405180830381600087803b158015612b3857600080fd5b505af1158015612b4c573d6000803e3d6000fd5b505050506040513d6020811015612b6257600080fd5b5051612b6a57fe5b806001600160a01b0316636a627842886040518263ffffffff1660e01b815260040180826001600160a01b03166001600160a01b03168152602001915050602060405180830381600087803b158015612bc257600080fd5b505af1158015612bd6573d6000803e3d6000fd5b505050506040513d6020811015612bec57600080fd5b5051925034841015612c0457612c04338534036130fe565b505096509650969350505050565b60608142811015612c58576040805162461bcd60e51b81526020600482015260186024820152600080516020614533833981519152604482015290519081900360640190fd5b7f00000000000000000000000000000000000000000000000000000000000000006001600160a01b031686866000818110612c8f57fe5b905060200201356001600160a01b03166001600160a01b031614612ce8576040805162461bcd60e51b815260206004820152601d6024820152600080516020614450833981519152604482015290519081900360640190fd5b612d467f00000000000000000000000000000000000000000000000000000000000000008888888080602002602001604051908101604052809392919081815260200183836020028082843760009201919091525061387d92505050565b91503482600081518110612d5657fe5b60200260200101511115612d9b5760405162461bcd60e51b81526004018080602001828103825260278152602001806144296027913960400191505060405180910390fd5b7f00000000000000000000000000000000000000000000000000000000000000006001600160a01b031663d0e30db083600081518110612dd757fe5b60200260200101516040518263ffffffff1660e01b81526004016000604051808303818588803b158015612e0a57600080fd5b505af1158015612e1e573d6000803e3d6000fd5b50505050507f00000000000000000000000000000000000000000000000000000000000000006001600160a01b031663a9059cbb612e837f00000000000000000000000000000000000000000000000000000000000000008989600081811061166e57fe5b84600081518110612e9057fe5b60200260200101516040518363ffffffff1660e01b815260040180836001600160a01b03166001600160a01b0316815260200182815260200192505050602060405180830381600087803b158015612ee757600080fd5b505af1158015612efb573d6000803e3d6000fd5b505050506040513d6020811015612f1157600080fd5b5051612f1957fe5b612f5882878780806020026020016040519081016040528093929190818152602001838360200280828437600092019190915250899250613637915050565b81600081518110612f6557fe5b6020026020010151341115611e3a57611e3a3383600081518110612f8557fe5b602002602001015134036130fe565b604080516001600160a01b038481166024830152604480830185905283518084039091018152606490920183526020820180516001600160e01b031663a9059cbb60e01b178152925182516000946060949389169392918291908083835b602083106130115780518252601f199092019160209182019101612ff2565b6001836020036101000a0380198251168184511680821785525050505050509050019150506000604051808303816000865af19150503d8060008114613073576040519150601f19603f3d011682016040523d82523d6000602084013e613078565b606091505b50915091508180156130a65750805115806130a657508080602001905160208110156130a357600080fd5b50515b6130f7576040805162461bcd60e51b815260206004820152601f60248201527f5472616e7366657248656c7065723a205452414e534645525f4641494c454400604482015290519081900360640190fd5b5050505050565b604080516000808252602082019092526001600160a01b0384169083906040518082805190602001908083835b6020831061314a5780518252601f19909201916020918201910161312b565b6001836020036101000a03801982511681845116808217855250505050505090500191505060006040518083038185875af1925050503d80600081146131ac576040519150601f19603f3d011682016040523d82523d6000602084013e6131b1565b606091505b50509050806131f15760405162461bcd60e51b81526004018080602001828103825260238152602001806144966023913960400191505060405180910390fd5b505050565b60008084116132365760405162461bcd60e51b815260040180806020018281038252602b815260200180614508602b913960400191505060405180910390fd5b6000831180156132465750600082115b6132815760405162461bcd60e51b81526004018080602001828103825260288152602001806143dc6028913960400191505060405180910390fd5b6000613295856103e563ffffffff6141eb16565b905060006132a9828563ffffffff6141eb16565b905060006132cf836132c3886103e863ffffffff6141eb16565b9063ffffffff61424e16565b90508082816132da57fe5b04979650505050505050565b606060028251101561332d576040805162461bcd60e51b815260206004820152601e6024820152600080516020614553833981519152604482015290519081900360640190fd5b81516001600160401b038111801561334457600080fd5b5060405190808252806020026020018201604052801561336e578160200160208202803683370190505b509050828160008151811061337f57fe5b60200260200101818152505060005b6001835103811015613417576000806133d1878685815181106133ad57fe5b60200260200101518786600101815181106133c457fe5b602002602001015161429d565b915091506133f38484815181106133e457fe5b602002602001015183836131f6565b84846001018151811061340257fe5b6020908102919091010152505060010161338e565b509392505050565b600080600061342e8585613e99565b604080516001600160601b0319606094851b811660208084019190915293851b81166034830152825160288184030181526048830184528051908501206001600160f81b031960688401529a90941b9093166069840152607d8301989098527f96e8ac4277198ff8b6f785478aa9a39f403cb768dd02cbee326c3e7da348845f609d808401919091528851808403909101815260bd909201909752805196019590952095945050505050565b604080516001600160a01b0385811660248301528481166044830152606480830185905283518084039091018152608490920183526020820180516001600160e01b03166323b872dd60e01b17815292518251600094606094938a169392918291908083835b6020831061355f5780518252601f199092019160209182019101613540565b6001836020036101000a0380198251168184511680821785525050505050509050019150506000604051808303816000865af19150503d80600081146135c1576040519150601f19603f3d011682016040523d82523d6000602084013e6135c6565b606091505b50915091508180156135f45750805115806135f457508080602001905160208110156135f157600080fd5b50515b61362f5760405162461bcd60e51b81526004018080602001828103825260248152602001806144e46024913960400191505060405180910390fd5b505050505050565b60005b60018351038110156138775760008084838151811061365557fe5b602002602001015185846001018151811061366c57fe5b60200260200101519150915060006136848383613e99565b509050600087856001018151811061369857fe5b60200260200101519050600080836001600160a01b0316866001600160a01b0316146136c6578260006136ca565b6000835b91509150600060028a510388106136e15788613722565b6137227f0000000000000000000000000000000000000000000000000000000000000000878c8b6002018151811061371557fe5b602002602001015161341f565b905061374f7f0000000000000000000000000000000000000000000000000000000000000000888861341f565b6001600160a01b031663022c0d9f84848460006040519080825280601f01601f19166020018201604052801561378c576020820181803683370190505b506040518563ffffffff1660e01b815260040180858152602001848152602001836001600160a01b03166001600160a01b0316815260200180602001828103825283818151815260200191508051906020019080838360005b838110156137fd5781810151838201526020016137e5565b50505050905090810190601f16801561382a5780820380516001836020036101000a031916815260200191505b5095505050505050600060405180830381600087803b15801561384c57600080fd5b505af1158015613860573d6000803e3d6000fd5b50506001909901985061363a975050505050505050565b50505050565b60606002825110156138c4576040805162461bcd60e51b815260206004820152601e6024820152600080516020614553833981519152604482015290519081900360640190fd5b81516001600160401b03811180156138db57600080fd5b50604051908082528060200260200182016040528015613905578160200160208202803683370190505b509050828160018351038151811061391957fe5b60209081029190910101528151600019015b80156134175760008061395b8786600186038151811061394757fe5b60200260200101518786815181106133c457fe5b9150915061397d84848151811061396e57fe5b60200260200101518383613cfd565b84600185038151811061398c57fe5b602090810291909101015250506000190161392b565b60005b60018351038110156131f1576000808483815181106139c057fe5b60200260200101518584600101815181106139d757fe5b60200260200101519150915060006139ef8383613e99565b5090506000613a1f7f0000000000000000000000000000000000000000000000000000000000000000858561341f565b9050600080600080846001600160a01b0316630902f1ac6040518163ffffffff1660e01b815260040160606040518083038186803b158015613a6057600080fd5b505afa158015613a74573d6000803e3d6000fd5b505050506040513d6060811015613a8a57600080fd5b5080516020909101516001600160701b0391821693501690506000806001600160a01b038a811690891614613ac0578284613ac3565b83835b91509150613b21828b6001600160a01b03166370a082318a6040518263ffffffff1660e01b815260040180826001600160a01b03166001600160a01b0316815260200191505060206040518083038186803b1580156117ee57600080fd5b9550613b2e8683836131f6565b945050505050600080856001600160a01b0316886001600160a01b031614613b5857826000613b5c565b6000835b91509150600060028c51038a10613b73578a613ba7565b613ba77f0000000000000000000000000000000000000000000000000000000000000000898e8d6002018151811061371557fe5b604080516000808252602082019283905263022c0d9f60e01b835260248201878152604483018790526001600160a01b038086166064850152608060848501908152845160a48601819052969750908c169563022c0d9f958a958a958a9591949193919260c486019290918190849084905b83811015613c31578181015183820152602001613c19565b50505050905090810190601f168015613c5e5780820380516001836020036101000a031916815260200191505b5095505050505050600060405180830381600087803b158015613c8057600080fd5b505af1158015613c94573d6000803e3d6000fd5b50506001909b019a506139a59950505050505050505050565b808203828111156110f3576040805162461bcd60e51b815260206004820152601560248201527464732d6d6174682d7375622d756e646572666c6f7760581b604482015290519081900360640190fd5b6000808411613d3d5760405162461bcd60e51b815260040180806020018281038252602c815260200180614365602c913960400191505060405180910390fd5b600083118015613d4d5750600082115b613d885760405162461bcd60e51b81526004018080602001828103825260288152602001806143dc6028913960400191505060405180910390fd5b6000613dac6103e8613da0868863ffffffff6141eb16565b9063ffffffff6141eb16565b90506000613dc66103e5613da0868963ffffffff613cad16565b9050613de36001828481613dd657fe5b049063ffffffff61424e16565b9695505050505050565b6000808411613e2d5760405162461bcd60e51b81526004018080602001828103825260258152602001806144046025913960400191505060405180910390fd5b600083118015613e3d5750600082115b613e785760405162461bcd60e51b81526004018080602001828103825260288152602001806143dc6028913960400191505060405180910390fd5b82613e89858463ffffffff6141eb16565b81613e9057fe5b04949350505050565b600080826001600160a01b0316846001600160a01b03161415613eed5760405162461bcd60e51b81526004018080602001828103825260258152602001806143916025913960400191505060405180910390fd5b826001600160a01b0316846001600160a01b031610613f0d578284613f10565b83835b90925090506001600160a01b038216613f70576040805162461bcd60e51b815260206004820152601e60248201527f556e697377617056324c6962726172793a205a45524f5f414444524553530000604482015290519081900360640190fd5b9250929050565b6040805163e6a4390560e01b81526001600160a01b03888116600483015287811660248301529151600092839283927f00000000000000000000000000000000000000000000000000000000000000009092169163e6a4390591604480820192602092909190829003018186803b158015613ff157600080fd5b505afa158015614005573d6000803e3d6000fd5b505050506040513d602081101561401b57600080fd5b50516001600160a01b031614156140ce57604080516364e329cb60e11b81526001600160a01b038a81166004830152898116602483015291517f00000000000000000000000000000000000000000000000000000000000000009092169163c9c65396916044808201926020929091908290030181600087803b1580156140a157600080fd5b505af11580156140b5573d6000803e3d6000fd5b505050506040513d60208110156140cb57600080fd5b50505b6000806140fc7f00000000000000000000000000000000000000000000000000000000000000008b8b61429d565b9150915081600014801561410e575080155b1561411e578793508692506141de565b600061412b898484613ded565b905087811161417e57858110156141735760405162461bcd60e51b81526004018080602001828103825260268152602001806143b66026913960400191505060405180910390fd5b8894509250826141dc565b600061418b898486613ded565b90508981111561419757fe5b878110156141d65760405162461bcd60e51b81526004018080602001828103825260268152602001806144706026913960400191505060405180910390fd5b94508793505b505b5050965096945050505050565b60008115806142065750508082028282828161420357fe5b04145b6110f3576040805162461bcd60e51b815260206004820152601460248201527364732d6d6174682d6d756c2d6f766572666c6f7760601b604482015290519081900360640190fd5b808201828110156110f3576040805162461bcd60e51b815260206004820152601460248201527364732d6d6174682d6164642d6f766572666c6f7760601b604482015290519081900360640190fd5b60008060006142ac8585613e99565b5090506000806142bd88888861341f565b6001600160a01b0316630902f1ac6040518163ffffffff1660e01b815260040160606040518083038186803b1580156142f557600080fd5b505afa158015614309573d6000803e3d6000fd5b505050506040513d606081101561431f57600080fd5b5080516020909101516001600160701b0391821693501690506001600160a01b0387811690841614614352578082614355565b81815b9099909850965050505050505056fe556e697377617056324c6962726172793a20494e53554646494349454e545f4f55545055545f414d4f554e54556e697377617056324c6962726172793a204944454e544943414c5f414444524553534553556e69737761705632526f757465723a20494e53554646494349454e545f425f414d4f554e54556e697377617056324c6962726172793a20494e53554646494349454e545f4c4951554944495459556e697377617056324c6962726172793a20494e53554646494349454e545f414d4f554e54556e69737761705632526f757465723a204558434553534956455f494e5055545f414d4f554e54556e69737761705632526f757465723a20494e56414c49445f50415448000000556e69737761705632526f757465723a20494e53554646494349454e545f415f414d4f554e545472616e7366657248656c7065723a204554485f5452414e534645525f4641494c4544556e69737761705632526f757465723a20494e53554646494349454e545f4f55545055545f414d4f554e545472616e7366657248656c7065723a205452414e534645525f46524f4d5f4641494c4544556e697377617056324c6962726172793a20494e53554646494349454e545f494e5055545f414d4f554e54556e69737761705632526f757465723a20455850495245440000000000000000556e697377617056324c6962726172793a20494e56414c49445f504154480000a2646970667358221220842c5aac5096c5ed055574dc77990c7916bb8ded8b49818cb637345b93e24cf464736f6c63430006060033","linkReferences":{}},"methodIdentifiers":{"WETH()":"ad5c4648","addLiquidity(address,address,uint256,uint256,uint256,uint256,address,uint256)":"e8e33700","addLiquidityETH(address,uint256,uint256,uint256,address,uint256)":"f305d719","factory()":"c45a0155","getAmountIn(uint256,uint256,uint256)":"85f8c259","getAmountOut(uint256,uint256,uint256)":"054d50d4","getAmountsIn(uint256,address[])":"1f00ca74","getAmountsOut(uint256,address[])":"d06ca61f","quote(uint256,uint256,uint256)":"ad615dec","removeLiquidity(address,address,uint256,uint256,uint256,address,uint256)":"baa2abde","removeLiquidityETH(address,uint256,uint256,uint256,address,uint256)":"02751cec","removeLiquidityETHSupportingFeeOnTransferTokens(address,uint256,uint256,uint256,address,uint256)":"af2979eb","removeLiquidityETHWithPermit(address,uint256,uint256,uint256,address,uint256,bool,uint8,bytes32,bytes32)":"ded9382a","removeLiquidityETHWithPermitSupportingFeeOnTransferTokens(address,uint256,uint256,uint256,address,uint256,bool,uint8,bytes32,bytes32)":"5b0d5984","removeLiquidityWithPermit(address,address,uint256,uint256,uint256,address,uint256,bool,uint8,bytes32,bytes32)":"2195995c","swapETHForExactTokens(uint256,address[],address,uint256)":"fb3bdb41","swapExactETHForTokens(uint256,address[],address,uint256)":"7ff36ab5","swapExactETHForTokensSupportingFeeOnTransferTokens(uint256,address[],address,uint256)":"b6f9de95","swapExactTokensForETH(uint256,uint256,address[],address,uint256)":"18cbafe5","swapExactTokensForETHSupportingFeeOnTransferTokens(uint256,uint256,address[],address,uint256)":"791ac947","swapExactTokensForTokens(uint256,uint256,address[],address,uint256)":"38ed1739","swapExactTokensForTokensSupportingFeeOnTransferTokens(uint256,uint256,address[],address,uint256)":"5c11d795","swapTokensForExactETH(uint256,uint256,address[],address,uint256)":"4a25d94a","swapTokensForExactTokens(uint256,uint256,address[],address,uint256)":"8803dbee"},"id":9}